{
  "_format": "hh-sol-artifact-1",
  "contractName": "EstimateGas",
  "sourceName": "contracts/EstimateGas.sol",
  "abi": [
    {
      "inputs": [
        {
          "internalType": "address",
          "name": "target",
          "type": "address"
        },
        {
          "internalType": "uint256",
          "name": "value",
          "type": "uint256"
        },
        {
          "internalType": "bytes",
          "name": "cdata",
          "type": "bytes"
        }
      ],
      "name": "estimateGasForTxn",
      "outputs": [
        {
          "internalType": "uint256",
          "name": "gasUsed",
          "type": "uint256"
        }
      ],
      "stateMutability": "nonpayable",
      "type": "function"
    }
  ],
  "bytecode": "0x608060405234801561001057600080fd5b506101cf806100206000396000f3fe608060405234801561001057600080fd5b506004361061002b5760003560e01c80634cd47f8314610030575b600080fd5b61004361003e3660046100eb565b610055565b60405190815260200160405180910390f35b6000805a905060008673ffffffffffffffffffffffffffffffffffffffff1686868660405161008592919061018d565b60006040518083038185875af1925050503d80600081146100c2576040519150601f19603f3d011682016040523d82523d6000602084013e6100c7565b606091505b50509050806100d557600080fd5b5a6100e0908361019d565b979650505050505050565b6000806000806060858703121561010157600080fd5b843573ffffffffffffffffffffffffffffffffffffffff8116811461012557600080fd5b935060208501359250604085013567ffffffffffffffff8082111561014957600080fd5b818701915087601f83011261015d57600080fd5b81358181111561016c57600080fd5b88602082850101111561017e57600080fd5b95989497505060200194505050565b8183823760009101908152919050565b6000828210156101bd57634e487b7160e01b600052601160045260246000fd5b50039056fea164736f6c6343000809000a",
  "linkReferences": {},
  "deployedLinkReferences": {}
}